{
  "_format": "hh-sol-artifact-1",
  "contractName": "CustomFactory",
  "sourceName": "contracts/CustomFactory.sol",
  "abi": [
    {
      "inputs": [
        {
          "internalType": "address",
          "name": "_initialOwner",
          "type": "address"
        }
      ],
      "stateMutability": "nonpayable",
      "type": "constructor"
    },
    {
      "inputs": [
        {
          "internalType": "address",
          "name": "owner",
          "type": "address"
        }
      ],
      "name": "OwnableInvalidOwner",
      "type": "error"
    },
    {
      "inputs": [
        {
          "internalType": "address",
          "name": "account",
          "type": "address"
        }
      ],
      "name": "OwnableUnauthorizedAccount",
      "type": "error"
    },
    {
      "anonymous": false,
      "inputs": [
        {
          "indexed": true,
          "internalType": "address",
          "name": "previousOwner",
          "type": "address"
        },
        {
          "indexed": true,
          "internalType": "address",
          "name": "newOwner",
          "type": "address"
        }
      ],
      "name": "OwnershipTransferred",
      "type": "event"
    },
    {
      "anonymous": false,
      "inputs": [
        {
          "indexed": true,
          "internalType": "address",
          "name": "token0",
          "type": "address"
        },
        {
          "indexed": true,
          "internalType": "address",
          "name": "token1",
          "type": "address"
        },
        {
          "indexed": false,
          "internalType": "uint24",
          "name": "fee",
          "type": "uint24"
        },
        {
          "indexed": false,
          "internalType": "int24",
          "name": "tickSpacing",
          "type": "int24"
        },
        {
          "indexed": false,
          "internalType": "address",
          "name": "pool",
          "type": "address"
        }
      ],
      "name": "PoolCreated",
      "type": "event"
    },
    {
      "inputs": [
        {
          "internalType": "address",
          "name": "tokenA",
          "type": "address"
        },
        {
          "internalType": "address",
          "name": "tokenB",
          "type": "address"
        },
        {
          "internalType": "uint24",
          "name": "fee",
          "type": "uint24"
        },
        {
          "internalType": "int24",
          "name": "tickSpacing",
          "type": "int24"
        }
      ],
      "name": "createPool",
      "outputs": [
        {
          "internalType": "address",
          "name": "pool",
          "type": "address"
        }
      ],
      "stateMutability": "nonpayable",
      "type": "function"
    },
    {
      "inputs": [],
      "name": "feeToSetter",
      "outputs": [
        {
          "internalType": "address",
          "name": "",
          "type": "address"
        }
      ],
      "stateMutability": "view",
      "type": "function"
    },
    {
      "inputs": [
        {
          "internalType": "address",
          "name": "tokenA",
          "type": "address"
        },
        {
          "internalType": "address",
          "name": "tokenB",
          "type": "address"
        },
        {
          "internalType": "uint24",
          "name": "fee",
          "type": "uint24"
        }
      ],
      "name": "getPool",
      "outputs": [
        {
          "internalType": "address",
          "name": "",
          "type": "address"
        }
      ],
      "stateMutability": "view",
      "type": "function"
    },
    {
      "inputs": [],
      "name": "owner",
      "outputs": [
        {
          "internalType": "address",
          "name": "",
          "type": "address"
        }
      ],
      "stateMutability": "view",
      "type": "function"
    },
    {
      "inputs": [],
      "name": "poolCount",
      "outputs": [
        {
          "internalType": "uint256",
          "name": "",
          "type": "uint256"
        }
      ],
      "stateMutability": "view",
      "type": "function"
    },
    {
      "inputs": [
        {
          "internalType": "address",
          "name": "",
          "type": "address"
        },
        {
          "internalType": "address",
          "name": "",
          "type": "address"
        },
        {
          "internalType": "uint24",
          "name": "",
          "type": "uint24"
        }
      ],
      "name": "pools",
      "outputs": [
        {
          "internalType": "address",
          "name": "",
          "type": "address"
        }
      ],
      "stateMutability": "view",
      "type": "function"
    },
    {
      "inputs": [],
      "name": "renounceOwnership",
      "outputs": [],
      "stateMutability": "nonpayable",
      "type": "function"
    },
    {
      "inputs": [
        {
          "internalType": "address",
          "name": "_feeToSetter",
          "type": "address"
        }
      ],
      "name": "setFeeToSetter",
      "outputs": [],
      "stateMutability": "nonpayable",
      "type": "function"
    },
    {
      "inputs": [
        {
          "internalType": "address",
          "name": "newOwner",
          "type": "address"
        }
      ],
      "name": "transferOwnership",
      "outputs": [],
      "stateMutability": "nonpayable",
      "type": "function"
    }
  ],
  "bytecode": "0x60806040523480156200001157600080fd5b5060405162002272380380620022728339818101604052810190620000379190620002a7565b80600073ffffffffffffffffffffffffffffffffffffffff168173ffffffffffffffffffffffffffffffffffffffff1603620000ad5760006040517f1e4fbdf7000000000000000000000000000000000000000000000000000000008152600401620000a49190620002ea565b60405180910390fd5b620000be816200017960201b60201c565b50600073ffffffffffffffffffffffffffffffffffffffff168173ffffffffffffffffffffffffffffffffffffffff160362000131576040517f08c379a0000000000000000000000000000000000000000000000000000000008152600401620001289062000368565b60405180910390fd5b80600160006101000a81548173ffffffffffffffffffffffffffffffffffffffff021916908373ffffffffffffffffffffffffffffffffffffffff160217905550506200038a565b60008060009054906101000a900473ffffffffffffffffffffffffffffffffffffffff169050816000806101000a81548173ffffffffffffffffffffffffffffffffffffffff021916908373ffffffffffffffffffffffffffffffffffffffff1602179055508173ffffffffffffffffffffffffffffffffffffffff168173ffffffffffffffffffffffffffffffffffffffff167f8be0079c531659141344cd1fd0a4f28419497f9722a3daafe3b4186f6b6457e060405160405180910390a35050565b600080fd5b600073ffffffffffffffffffffffffffffffffffffffff82169050919050565b60006200026f8262000242565b9050919050565b620002818162000262565b81146200028d57600080fd5b50565b600081519050620002a18162000276565b92915050565b600060208284031215620002c057620002bf6200023d565b5b6000620002d08482850162000290565b91505092915050565b620002e48162000262565b82525050565b6000602082019050620003016000830184620002d9565b92915050565b600082825260208201905092915050565b7f494e56414c49445f4f574e455200000000000000000000000000000000000000600082015250565b600062000350600d8362000307565b91506200035d8262000318565b602082019050919050565b60006020820190508181036000830152620003838162000341565b9050919050565b611ed8806200039a6000396000f3fe60806040523480156200001157600080fd5b5060043610620000a05760003560e01c8063a2e74af6116200006f578063a2e74af6146200012b578063bae0d918146200014b578063f2fde38b1462000181578063f425a3ce14620001a1578063f525cb6814620001d757620000a0565b8063094b741514620000a55780631698ee8214620000c7578063715018a614620000fd5780638da5cb5b1462000109575b600080fd5b620000af620001f9565b604051620000be919062000c8d565b60405180910390f35b620000e56004803603810190620000df919062000d20565b6200021f565b604051620000f4919062000c8d565b60405180910390f35b620001076200032a565b005b6200011362000342565b60405162000122919062000c8d565b60405180910390f35b62000149600480360381019062000143919062000d7c565b6200036b565b005b62000169600480360381019062000163919062000d20565b6200042b565b60405162000178919062000c8d565b60405180910390f35b6200019f600480360381019062000199919062000d7c565b6200047a565b005b620001bf6004803603810190620001b9919062000dec565b62000507565b604051620001ce919062000c8d565b60405180910390f35b620001e162000ad8565b604051620001f0919062000e79565b60405180910390f35b600160009054906101000a900473ffffffffffffffffffffffffffffffffffffffff1681565b60008060008473ffffffffffffffffffffffffffffffffffffffff168673ffffffffffffffffffffffffffffffffffffffff16106200026057848662000263565b85855b91509150600260008373ffffffffffffffffffffffffffffffffffffffff1673ffffffffffffffffffffffffffffffffffffffff16815260200190815260200160002060008273ffffffffffffffffffffffffffffffffffffffff1673ffffffffffffffffffffffffffffffffffffffff16815260200190815260200160002060008562ffffff1662ffffff16815260200190815260200160002060009054906101000a900473ffffffffffffffffffffffffffffffffffffffff16925050509392505050565b6200033462000ade565b62000340600062000b6e565b565b60008060009054906101000a900473ffffffffffffffffffffffffffffffffffffffff16905090565b6200037562000ade565b600073ffffffffffffffffffffffffffffffffffffffff168173ffffffffffffffffffffffffffffffffffffffff1603620003e7576040517f08c379a0000000000000000000000000000000000000000000000000000000008152600401620003de9062000ef7565b60405180910390fd5b80600160006101000a81548173ffffffffffffffffffffffffffffffffffffffff021916908373ffffffffffffffffffffffffffffffffffffffff16021790555050565b6002602052826000526040600020602052816000526040600020602052806000526040600020600092509250509054906101000a900473ffffffffffffffffffffffffffffffffffffffff1681565b6200048462000ade565b600073ffffffffffffffffffffffffffffffffffffffff168173ffffffffffffffffffffffffffffffffffffffff1603620004f95760006040517f1e4fbdf7000000000000000000000000000000000000000000000000000000008152600401620004f0919062000c8d565b60405180910390fd5b620005048162000b6e565b50565b60006200051362000ade565b8373ffffffffffffffffffffffffffffffffffffffff168573ffffffffffffffffffffffffffffffffffffffff160362000584576040517f08c379a00000000000000000000000000000000000000000000000000000000081526004016200057b9062000f69565b60405180910390fd5b6000808573ffffffffffffffffffffffffffffffffffffffff168773ffffffffffffffffffffffffffffffffffffffff1610620005c3578587620005c6565b86865b91509150600073ffffffffffffffffffffffffffffffffffffffff168273ffffffffffffffffffffffffffffffffffffffff1614158015620006355750600073ffffffffffffffffffffffffffffffffffffffff168173ffffffffffffffffffffffffffffffffffffffff1614155b62000677576040517f08c379a00000000000000000000000000000000000000000000000000000000081526004016200066e9062000fdb565b60405180910390fd5b600073ffffffffffffffffffffffffffffffffffffffff16600260008473ffffffffffffffffffffffffffffffffffffffff1673ffffffffffffffffffffffffffffffffffffffff16815260200190815260200160002060008373ffffffffffffffffffffffffffffffffffffffff1673ffffffffffffffffffffffffffffffffffffffff16815260200190815260200160002060008762ffffff1662ffffff16815260200190815260200160002060009054906101000a900473ffffffffffffffffffffffffffffffffffffffff1673ffffffffffffffffffffffffffffffffffffffff1614620007a0576040517f08c379a000000000000000000000000000000000000000000000000000000000815260040162000797906200104d565b60405180910390fd5b60648562ffffff161480620007bb57506101f48562ffffff16145b80620007cd5750610bb88562ffffff16145b80620007df57506127108562ffffff16145b62000821576040517f08c379a00000000000000000000000000000000000000000000000000000000081526004016200081890620010bf565b60405180910390fd5b6000828287876040516020016200083c94939291906200119c565b6040516020818303038152906040528051906020012090508083838888604051620008679062000c3a565b62000876949392919062001214565b8190604051809103906000f590508015801562000897573d6000803e3d6000fd5b50935083600260008573ffffffffffffffffffffffffffffffffffffffff1673ffffffffffffffffffffffffffffffffffffffff16815260200190815260200160002060008473ffffffffffffffffffffffffffffffffffffffff1673ffffffffffffffffffffffffffffffffffffffff16815260200190815260200160002060008862ffffff1662ffffff16815260200190815260200160002060006101000a81548173ffffffffffffffffffffffffffffffffffffffff021916908373ffffffffffffffffffffffffffffffffffffffff16021790555083600260008473ffffffffffffffffffffffffffffffffffffffff1673ffffffffffffffffffffffffffffffffffffffff16815260200190815260200160002060008573ffffffffffffffffffffffffffffffffffffffff1673ffffffffffffffffffffffffffffffffffffffff16815260200190815260200160002060008862ffffff1662ffffff16815260200190815260200160002060006101000a81548173ffffffffffffffffffffffffffffffffffffffff021916908373ffffffffffffffffffffffffffffffffffffffff16021790555060016003600082825462000a5b919062001290565b925050819055508173ffffffffffffffffffffffffffffffffffffffff168373ffffffffffffffffffffffffffffffffffffffff167f783cca1c0412dd0d695e784568c96da2e9c22ff989357a2e8b1d9b2b4e6b711888888860405162000ac593929190620012cb565b60405180910390a3505050949350505050565b60035481565b62000ae862000c32565b73ffffffffffffffffffffffffffffffffffffffff1662000b0862000342565b73ffffffffffffffffffffffffffffffffffffffff161462000b6c5762000b2e62000c32565b6040517f118cdaa700000000000000000000000000000000000000000000000000000000815260040162000b63919062000c8d565b60405180910390fd5b565b60008060009054906101000a900473ffffffffffffffffffffffffffffffffffffffff169050816000806101000a81548173ffffffffffffffffffffffffffffffffffffffff021916908373ffffffffffffffffffffffffffffffffffffffff1602179055508173ffffffffffffffffffffffffffffffffffffffff168173ffffffffffffffffffffffffffffffffffffffff167f8be0079c531659141344cd1fd0a4f28419497f9722a3daafe3b4186f6b6457e060405160405180910390a35050565b600033905090565b610b9a806200130983390190565b600073ffffffffffffffffffffffffffffffffffffffff82169050919050565b600062000c758262000c48565b9050919050565b62000c878162000c68565b82525050565b600060208201905062000ca4600083018462000c7c565b92915050565b600080fd5b62000cba8162000c68565b811462000cc657600080fd5b50565b60008135905062000cda8162000caf565b92915050565b600062ffffff82169050919050565b62000cfa8162000ce0565b811462000d0657600080fd5b50565b60008135905062000d1a8162000cef565b92915050565b60008060006060848603121562000d3c5762000d3b62000caa565b5b600062000d4c8682870162000cc9565b935050602062000d5f8682870162000cc9565b925050604062000d728682870162000d09565b9150509250925092565b60006020828403121562000d955762000d9462000caa565b5b600062000da58482850162000cc9565b91505092915050565b60008160020b9050919050565b62000dc68162000dae565b811462000dd257600080fd5b50565b60008135905062000de68162000dbb565b92915050565b6000806000806080858703121562000e095762000e0862000caa565b5b600062000e198782880162000cc9565b945050602062000e2c8782880162000cc9565b935050604062000e3f8782880162000d09565b925050606062000e528782880162000dd5565b91505092959194509250565b6000819050919050565b62000e738162000e5e565b82525050565b600060208201905062000e90600083018462000e68565b92915050565b600082825260208201905092915050565b7f494e56414c49445f4645455f544f5f5345545445520000000000000000000000600082015250565b600062000edf60158362000e96565b915062000eec8262000ea7565b602082019050919050565b6000602082019050818103600083015262000f128162000ed0565b9050919050565b7f4944454e544943414c5f41444452455353455300000000000000000000000000600082015250565b600062000f5160138362000e96565b915062000f5e8262000f19565b602082019050919050565b6000602082019050818103600083015262000f848162000f42565b9050919050565b7f5a45524f5f414444524553530000000000000000000000000000000000000000600082015250565b600062000fc3600c8362000e96565b915062000fd08262000f8b565b602082019050919050565b6000602082019050818103600083015262000ff68162000fb4565b9050919050565b7f504f4f4c5f455849535453000000000000000000000000000000000000000000600082015250565b600062001035600b8362000e96565b9150620010428262000ffd565b602082019050919050565b60006020820190508181036000830152620010688162001026565b9050919050565b7f494e56414c49445f464545000000000000000000000000000000000000000000600082015250565b6000620010a7600b8362000e96565b9150620010b4826200106f565b602082019050919050565b60006020820190508181036000830152620010da8162001098565b9050919050565b60008160601b9050919050565b6000620010fb82620010e1565b9050919050565b60006200110f82620010ee565b9050919050565b6200112b620011258262000c68565b62001102565b82525050565b60008160e81b9050919050565b60006200114b8262001131565b9050919050565b62001167620011618262000ce0565b6200113e565b82525050565b60006200117a8262001131565b9050919050565b62001196620011908262000dae565b6200116d565b82525050565b6000620011aa828762001116565b601482019150620011bc828662001116565b601482019150620011ce828562001152565b600382019150620011e0828462001181565b60038201915081905095945050505050565b620011fd8162000ce0565b82525050565b6200120e8162000dae565b82525050565b60006080820190506200122b600083018762000c7c565b6200123a602083018662000c7c565b620012496040830185620011f2565b62001258606083018462001203565b95945050505050565b7f4e487b7100000000000000000000000000000000000000000000000000000000600052601160045260246000fd5b60006200129d8262000e5e565b9150620012aa8362000e5e565b9250828201905080821115620012c557620012c462001261565b5b92915050565b6000606082019050620012e26000830186620011f2565b620012f1602083018562001203565b62001300604083018462000c7c565b94935050505056fe60806040523480156200001157600080fd5b5060405162000b9a38038062000b9a833981810160405281019062000037919062000353565b600160008190555033600160006101000a81548173ffffffffffffffffffffffffffffffffffffffff021916908373ffffffffffffffffffffffffffffffffffffffff160217905550600073ffffffffffffffffffffffffffffffffffffffff168473ffffffffffffffffffffffffffffffffffffffff1614158015620000eb5750600073ffffffffffffffffffffffffffffffffffffffff168373ffffffffffffffffffffffffffffffffffffffff1614155b6200012d576040517f08c379a0000000000000000000000000000000000000000000000000000000008152600401620001249062000426565b60405180910390fd5b8273ffffffffffffffffffffffffffffffffffffffff168473ffffffffffffffffffffffffffffffffffffffff16036200019e576040517f08c379a0000000000000000000000000000000000000000000000000000000008152600401620001959062000498565b60405180910390fd5b83600260006101000a81548173ffffffffffffffffffffffffffffffffffffffff021916908373ffffffffffffffffffffffffffffffffffffffff16021790555082600360006101000a81548173ffffffffffffffffffffffffffffffffffffffff021916908373ffffffffffffffffffffffffffffffffffffffff16021790555081600360146101000a81548162ffffff021916908362ffffff16021790555080600360176101000a81548162ffffff021916908360020b62ffffff16021790555050505050620004ba565b600080fd5b600073ffffffffffffffffffffffffffffffffffffffff82169050919050565b60006200029d8262000270565b9050919050565b620002af8162000290565b8114620002bb57600080fd5b50565b600081519050620002cf81620002a4565b92915050565b600062ffffff82169050919050565b620002ef81620002d5565b8114620002fb57600080fd5b50565b6000815190506200030f81620002e4565b92915050565b60008160020b9050919050565b6200032d8162000315565b81146200033957600080fd5b50565b6000815190506200034d8162000322565b92915050565b6000806000806080858703121562000370576200036f6200026b565b5b60006200038087828801620002be565b94505060206200039387828801620002be565b9350506040620003a687828801620002fe565b9250506060620003b9878288016200033c565b91505092959194509250565b600082825260208201905092915050565b7f5a45524f5f414444524553530000000000000000000000000000000000000000600082015250565b60006200040e600c83620003c5565b91506200041b82620003d6565b602082019050919050565b600060208201905081810360008301526200044181620003ff565b9050919050565b7f4944454e544943414c5f41444452455353455300000000000000000000000000600082015250565b600062000480601383620003c5565b91506200048d8262000448565b602082019050919050565b60006020820190508181036000830152620004b38162000471565b9050919050565b6106d080620004ca6000396000f3fe608060405234801561001057600080fd5b50600436106100885760003560e01c8063c45a01551161005b578063c45a015514610101578063d0c93a7c1461011f578063d21220a71461013d578063ddca3f431461015b57610088565b80630dfe16811461008d5780631a686502146100ab578063709e9952146100c957806392da91ad146100e5575b600080fd5b610095610179565b6040516100a29190610437565b60405180910390f35b6100b361019f565b6040516100c0919061047d565b60405180910390f35b6100e360048036038101906100de91906104c9565b6101c1565b005b6100ff60048036038101906100fa91906104c9565b610237565b005b610109610332565b6040516101169190610437565b60405180910390f35b610127610358565b6040516101349190610512565b60405180910390f35b61014561036b565b6040516101529190610437565b60405180910390f35b610163610391565b604051610170919061054b565b60405180910390f35b600260009054906101000a900473ffffffffffffffffffffffffffffffffffffffff1681565b600460009054906101000a90046fffffffffffffffffffffffffffffffff1681565b6101c96103a6565b80600460008282829054906101000a90046fffffffffffffffffffffffffffffffff166101f69190610595565b92506101000a8154816fffffffffffffffffffffffffffffffff02191690836fffffffffffffffffffffffffffffffff1602179055506102346103ec565b50565b61023f6103a6565b806fffffffffffffffffffffffffffffffff16600460009054906101000a90046fffffffffffffffffffffffffffffffff166fffffffffffffffffffffffffffffffff1610156102c4576040517f08c379a00000000000000000000000000000000000000000000000000000000081526004016102bb90610636565b60405180910390fd5b80600460008282829054906101000a90046fffffffffffffffffffffffffffffffff166102f19190610656565b92506101000a8154816fffffffffffffffffffffffffffffffff02191690836fffffffffffffffffffffffffffffffff16021790555061032f6103ec565b50565b600160009054906101000a900473ffffffffffffffffffffffffffffffffffffffff1681565b600360179054906101000a900460020b81565b600360009054906101000a900473ffffffffffffffffffffffffffffffffffffffff1681565b600360149054906101000a900462ffffff1681565b6002600054036103e2576040517f3ee5aeb500000000000000000000000000000000000000000000000000000000815260040160405180910390fd5b6002600081905550565b6001600081905550565b600073ffffffffffffffffffffffffffffffffffffffff82169050919050565b6000610421826103f6565b9050919050565b61043181610416565b82525050565b600060208201905061044c6000830184610428565b92915050565b60006fffffffffffffffffffffffffffffffff82169050919050565b61047781610452565b82525050565b6000602082019050610492600083018461046e565b92915050565b600080fd5b6104a681610452565b81146104b157600080fd5b50565b6000813590506104c38161049d565b92915050565b6000602082840312156104df576104de610498565b5b60006104ed848285016104b4565b91505092915050565b60008160020b9050919050565b61050c816104f6565b82525050565b60006020820190506105276000830184610503565b92915050565b600062ffffff82169050919050565b6105458161052d565b82525050565b6000602082019050610560600083018461053c565b92915050565b7f4e487b7100000000000000000000000000000000000000000000000000000000600052601160045260246000fd5b60006105a082610452565b91506105ab83610452565b925082820190506fffffffffffffffffffffffffffffffff8111156105d3576105d2610566565b5b92915050565b600082825260208201905092915050565b7f494e53554646494349454e545f4c495155494449545900000000000000000000600082015250565b60006106206016836105d9565b915061062b826105ea565b602082019050919050565b6000602082019050818103600083015261064f81610613565b9050919050565b600061066182610452565b915061066c83610452565b925082820390506fffffffffffffffffffffffffffffffff81111561069457610693610566565b5b9291505056fea2646970667358221220a7155340c7e187989f8fae5ff7dc7e0ed528f6e6538bdbc8e8955a4a379aedc564736f6c63430008140033a2646970667358221220cdcb06f33528658ec358b3e60befa96f40800f578532b5aa2712c43e5afbe92064736f6c63430008140033",
  "linkReferences": {},
  "deployedLinkReferences": {}
}