{
  "_format": "hh-sol-artifact-1",
  "contractName": "CustomPool",
  "sourceName": "contracts/CustomPool.sol",
  "abi": [
    {
      "inputs": [
        {
          "internalType": "address",
          "name": "_token0",
          "type": "address"
        },
        {
          "internalType": "address",
          "name": "_token1",
          "type": "address"
        },
        {
          "internalType": "uint24",
          "name": "_fee",
          "type": "uint24"
        },
        {
          "internalType": "int24",
          "name": "_tickSpacing",
          "type": "int24"
        }
      ],
      "stateMutability": "nonpayable",
      "type": "constructor"
    },
    {
      "inputs": [],
      "name": "ReentrancyGuardReentrantCall",
      "type": "error"
    },
    {
      "inputs": [
        {
          "internalType": "uint128",
          "name": "amount",
          "type": "uint128"
        }
      ],
      "name": "addLiquidity",
      "outputs": [],
      "stateMutability": "nonpayable",
      "type": "function"
    },
    {
      "inputs": [],
      "name": "factory",
      "outputs": [
        {
          "internalType": "address",
          "name": "",
          "type": "address"
        }
      ],
      "stateMutability": "view",
      "type": "function"
    },
    {
      "inputs": [],
      "name": "fee",
      "outputs": [
        {
          "internalType": "uint24",
          "name": "",
          "type": "uint24"
        }
      ],
      "stateMutability": "view",
      "type": "function"
    },
    {
      "inputs": [],
      "name": "liquidity",
      "outputs": [
        {
          "internalType": "uint128",
          "name": "",
          "type": "uint128"
        }
      ],
      "stateMutability": "view",
      "type": "function"
    },
    {
      "inputs": [
        {
          "internalType": "uint128",
          "name": "amount",
          "type": "uint128"
        }
      ],
      "name": "removeLiquidity",
      "outputs": [],
      "stateMutability": "nonpayable",
      "type": "function"
    },
    {
      "inputs": [],
      "name": "tickSpacing",
      "outputs": [
        {
          "internalType": "int24",
          "name": "",
          "type": "int24"
        }
      ],
      "stateMutability": "view",
      "type": "function"
    },
    {
      "inputs": [],
      "name": "token0",
      "outputs": [
        {
          "internalType": "address",
          "name": "",
          "type": "address"
        }
      ],
      "stateMutability": "view",
      "type": "function"
    },
    {
      "inputs": [],
      "name": "token1",
      "outputs": [
        {
          "internalType": "address",
          "name": "",
          "type": "address"
        }
      ],
      "stateMutability": "view",
      "type": "function"
    }
  ],
  "bytecode": "0x60806040523480156200001157600080fd5b5060405162000b9a38038062000b9a833981810160405281019062000037919062000353565b600160008190555033600160006101000a81548173ffffffffffffffffffffffffffffffffffffffff021916908373ffffffffffffffffffffffffffffffffffffffff160217905550600073ffffffffffffffffffffffffffffffffffffffff168473ffffffffffffffffffffffffffffffffffffffff1614158015620000eb5750600073ffffffffffffffffffffffffffffffffffffffff168373ffffffffffffffffffffffffffffffffffffffff1614155b6200012d576040517f08c379a0000000000000000000000000000000000000000000000000000000008152600401620001249062000426565b60405180910390fd5b8273ffffffffffffffffffffffffffffffffffffffff168473ffffffffffffffffffffffffffffffffffffffff16036200019e576040517f08c379a0000000000000000000000000000000000000000000000000000000008152600401620001959062000498565b60405180910390fd5b83600260006101000a81548173ffffffffffffffffffffffffffffffffffffffff021916908373ffffffffffffffffffffffffffffffffffffffff16021790555082600360006101000a81548173ffffffffffffffffffffffffffffffffffffffff021916908373ffffffffffffffffffffffffffffffffffffffff16021790555081600360146101000a81548162ffffff021916908362ffffff16021790555080600360176101000a81548162ffffff021916908360020b62ffffff16021790555050505050620004ba565b600080fd5b600073ffffffffffffffffffffffffffffffffffffffff82169050919050565b60006200029d8262000270565b9050919050565b620002af8162000290565b8114620002bb57600080fd5b50565b600081519050620002cf81620002a4565b92915050565b600062ffffff82169050919050565b620002ef81620002d5565b8114620002fb57600080fd5b50565b6000815190506200030f81620002e4565b92915050565b60008160020b9050919050565b6200032d8162000315565b81146200033957600080fd5b50565b6000815190506200034d8162000322565b92915050565b6000806000806080858703121562000370576200036f6200026b565b5b60006200038087828801620002be565b94505060206200039387828801620002be565b9350506040620003a687828801620002fe565b9250506060620003b9878288016200033c565b91505092959194509250565b600082825260208201905092915050565b7f5a45524f5f414444524553530000000000000000000000000000000000000000600082015250565b60006200040e600c83620003c5565b91506200041b82620003d6565b602082019050919050565b600060208201905081810360008301526200044181620003ff565b9050919050565b7f4944454e544943414c5f41444452455353455300000000000000000000000000600082015250565b600062000480601383620003c5565b91506200048d8262000448565b602082019050919050565b60006020820190508181036000830152620004b38162000471565b9050919050565b6106d080620004ca6000396000f3fe608060405234801561001057600080fd5b50600436106100885760003560e01c8063c45a01551161005b578063c45a015514610101578063d0c93a7c1461011f578063d21220a71461013d578063ddca3f431461015b57610088565b80630dfe16811461008d5780631a686502146100ab578063709e9952146100c957806392da91ad146100e5575b600080fd5b610095610179565b6040516100a29190610437565b60405180910390f35b6100b361019f565b6040516100c0919061047d565b60405180910390f35b6100e360048036038101906100de91906104c9565b6101c1565b005b6100ff60048036038101906100fa91906104c9565b610237565b005b610109610332565b6040516101169190610437565b60405180910390f35b610127610358565b6040516101349190610512565b60405180910390f35b61014561036b565b6040516101529190610437565b60405180910390f35b610163610391565b604051610170919061054b565b60405180910390f35b600260009054906101000a900473ffffffffffffffffffffffffffffffffffffffff1681565b600460009054906101000a90046fffffffffffffffffffffffffffffffff1681565b6101c96103a6565b80600460008282829054906101000a90046fffffffffffffffffffffffffffffffff166101f69190610595565b92506101000a8154816fffffffffffffffffffffffffffffffff02191690836fffffffffffffffffffffffffffffffff1602179055506102346103ec565b50565b61023f6103a6565b806fffffffffffffffffffffffffffffffff16600460009054906101000a90046fffffffffffffffffffffffffffffffff166fffffffffffffffffffffffffffffffff1610156102c4576040517f08c379a00000000000000000000000000000000000000000000000000000000081526004016102bb90610636565b60405180910390fd5b80600460008282829054906101000a90046fffffffffffffffffffffffffffffffff166102f19190610656565b92506101000a8154816fffffffffffffffffffffffffffffffff02191690836fffffffffffffffffffffffffffffffff16021790555061032f6103ec565b50565b600160009054906101000a900473ffffffffffffffffffffffffffffffffffffffff1681565b600360179054906101000a900460020b81565b600360009054906101000a900473ffffffffffffffffffffffffffffffffffffffff1681565b600360149054906101000a900462ffffff1681565b6002600054036103e2576040517f3ee5aeb500000000000000000000000000000000000000000000000000000000815260040160405180910390fd5b6002600081905550565b6001600081905550565b600073ffffffffffffffffffffffffffffffffffffffff82169050919050565b6000610421826103f6565b9050919050565b61043181610416565b82525050565b600060208201905061044c6000830184610428565b92915050565b60006fffffffffffffffffffffffffffffffff82169050919050565b61047781610452565b82525050565b6000602082019050610492600083018461046e565b92915050565b600080fd5b6104a681610452565b81146104b157600080fd5b50565b6000813590506104c38161049d565b92915050565b6000602082840312156104df576104de610498565b5b60006104ed848285016104b4565b91505092915050565b60008160020b9050919050565b61050c816104f6565b82525050565b60006020820190506105276000830184610503565b92915050565b600062ffffff82169050919050565b6105458161052d565b82525050565b6000602082019050610560600083018461053c565b92915050565b7f4e487b7100000000000000000000000000000000000000000000000000000000600052601160045260246000fd5b60006105a082610452565b91506105ab83610452565b925082820190506fffffffffffffffffffffffffffffffff8111156105d3576105d2610566565b5b92915050565b600082825260208201905092915050565b7f494e53554646494349454e545f4c495155494449545900000000000000000000600082015250565b60006106206016836105d9565b915061062b826105ea565b602082019050919050565b6000602082019050818103600083015261064f81610613565b9050919050565b600061066182610452565b915061066c83610452565b925082820390506fffffffffffffffffffffffffffffffff81111561069457610693610566565b5b9291505056fea2646970667358221220a7155340c7e187989f8fae5ff7dc7e0ed528f6e6538bdbc8e8955a4a379aedc564736f6c63430008140033",
  "linkReferences": {},
  "deployedLinkReferences": {}
}